:020000040800F2
:10000000201200200D02000827200008A31D000870
:1000100025200008490600081740000800000000DD
:1000200000000000000000000000000001260008A1
:100030005707000800000000CF23000851270008E0
:1000400027020008270200082702000827020008EC
:1000500027020008270200082702000827020008DC
:1000600027020008270200082702000827020008CC
:1000700027020008270200082702000827020008BC
:1000800027020008270200082702000827020008AC
:10009000A13F0008270200082702000827020008E5
:1000A000270200082702000827020008270200088C
:1000B000D1270008DD2700082702000827020008D2
:1000C000270200082702000827020008270200086C
:1000D000270200080D29000827020008270200084F
:1000E000270200082702000827020008270200084C
:1000F000270200082702000827020008270200083C
:10010000270200082702000827020008270200082B
:10011000270200082702000827020008270200081B
:10012000270200082702000827020008270200080B
:1001300000F002F800F05AF80AA090E8000C82449F
:100140008344AAF10107DA4501D100F04FF8AFF27C
:10015000090EBAE80F0013F0010F18BFFB1A43F0A5
:1001600001031847943F0000B43F00000A444FF0D9
:10017000000C10F8013B13F0070408BF10F8014B06
:100180001D1108BF10F8015B641E05D010F8016B4B
:10019000641E01F8016BF9D113F0080F1EBF10F8AF
:1001A000014BAD1C0C1B09D16D1E58BF01F801CBD2
:1001B000FAD505E014F8016B01F8016B6D1EF9D555
:1001C0009142D6D37047000000230024002500266A
:1001D000103A28BF78C1FBD8520728BF30C148BFAA
:1001E0000B6070471FB51FBD10B510BD00F0CFF8F4
:1001F0001146FFF7F7FF03F01FFF00F0EDF803B41F
:10020000FFF7F2FF03BC00F0F5F800000948804753
:1002100009480047FEE7FEE7FEE7FEE7FEE7FEE7E8
:10022000FEE7FEE7FEE7FEE704480549054A064B00
:1002300070470000CD27000831010008200C002085
:1002400020120020200E0020200E0020032A40F261
:10025000308010F0030C00F0158011F8013BBCF168
:10026000020F624498BF11F801CB00F8013B38BF80
:1002700011F8013BA2F1040298BF00F801CB38BF8E
:1002800000F8013B11F0030300F04F80083AC0F082
:10029000088051F8043B083A51F804CBA0E8081054
:1002A000F5E7121D5CBF51F8043B40F8043BAFF387
:1002B0000080D20724BF11F8013B11F801CB48BFE1
:1002C00011F8012B24BF00F8013B00F801CB48BF17
:1002D00000F8012B70474FF0000200B5134694461A
:1002E0009646203922BFA0E80C50A0E80C50B1F18E
:1002F0002001BFF4F7AF090728BFA0E80C5048BFA2
:100300000CC05DF804EB890028BF40F8042B08BF3F
:10031000704748BF20F8022B11F0804F18BF00F83B
:10032000012B704770477047704710B5203AC0F0F6
:100330000B80B1E81850203AA0E81850B1E81850E6
:10034000A0E81850BFF4F5AF5FEA027C24BFB1E823
:100350001850A0E8185044BF18C918C0BDE8104094
:100360005FEA827C24BF51F8043B40F8043B08BF9D
:100370007047D20728BF31F8023B48BF11F8012B64
:1003800028BF20F8023B48BF00F8012B7047754694
:1003900000F02CF8AE4605006946534620F00700F1
:1003A000854618B020B5FFF73FFFBDE820404FF06D
:1003B00000064FF000074FF000084FF0000B21F04F
:1003C0000701AC46ACE8C009ACE8C009ACE8C0091C
:1003D000ACE8C0098D46704710B50446AFF3008005
:1003E0002046BDE81040FFF70ABF000000487047F4
:1003F000BC0B002001491820ABBEFEE7260002001E
:1004000070470000F8B50C46069D002802DAC0F1DE
:10041000000E00E08646002C01DA674200E00F463D
:10042000294980B17CB1642A0DD349F64046B242D5
:1004300009D8642B07D37610B34204D8CE7D16B901
:1004400091F833607EB1C87D10B991F8330008B1DE
:10045000042100E0022101B02A46BDE8F04000235B
:10046000FF2002F0DFB8BE4501D9714600E03946F1
:1004700002FB0EF6B6FBF1FC7A43B2FBF1F603FB8E
:100480000EF27B43B2FBF1F2B3FBF1F7BCF1640F68
:1004900001D24FF0640C642E00D26426642A00D28C
:1004A0006422642F00D2642713460146624600206E
:1004B000009500F01FF83B4632462146012000958A
:1004C00000F018F8F8BD0000A8010020064A490015
:1004D000B2FBF1F1491E20B104480268D162C1604B
:1004E00070470348F9E7000040420F00280200204F
:1004F000E00100202DE9F0479846DDF820901746EE
:100500000D46064602280CD25DB1642F09D349F688
:100510004040874205D8B8F1640F02D341108845A6
:1005200003D900234A46022147E02948C6EBC60109
:1005300000EB8104E07D18B163684A4604213CE089
:1005400024481EB1002D0DDD01220CE0002D01DD3F
:10055000012200E000220221824600F000FA00227F
:10056000012106E000220821824600F0F8F900226D
:100570000421504600F0F3F9B908642900D264213F
:10058000002D00DA6D42256000256560A760E160FE
:10059000C4F81080A4F81490A57525760120E075A4
:1005A0003046FFF793FF6EB10B48006845620A487A
:1005B00001F09CFA00234A4619463046BDE8F04750
:1005C00002F030B80548006845620448F0E70000D2
:1005D000A80100200008014028020020E0010020BE
:1005E0002DE9F0410E460546022823D21249C5EBFB
:1005F000C50001EB8004E07D60B10020E075A075CE
:100600000E4F8DB10E4801F0A7FA002204213846A2
:1006100000F0A5F9002E0DD06368A28A2846BDE837
:10062000F041032101F0FEBF064801F095FA0022D7
:100630000121ECE7BDE8F081A8010020000801409D
:1006400028020020E0010020FEE70000124A2028D6
:1006500002D021281DD10EE08B78088863F31F405B
:10066000CB7840EA036010600879107148795071C6
:10067000887990710DE010680870030A4B70030CC4
:100680008B70000EC870107908715079487190799C
:10069000887100207047000018000020002070477B
:1006A00010B500220549064802F060FA03490448E3
:1006B000403902F055FA002010BD000074050020FA
:1006C0007002002070B50D460646002403E0305D40
:1006D00001F044FF641C2868A042F8D8044905488A
:1006E00002F03EFA034802F01FFA002070BD00003D
:1006F000340500207002002010B50C460C49D1F8DA
:10070000B81221B1D1F8141209B9402C01D9012035
:1007100010BD014622460748FFF798FD22460549CD
:10072000034802F023FABDE81040014802F07CBA09
:1007300070020020740500204840002107220306B3
:1007400002D582EA400000E04000491CC9B2C0B2B4
:100750000829F4D37047704772B6FEE72DE9F84FC9
:10076000DFF8C8910024A9F1040B23460F2709F1F3
:10077000040AABF1040ED1E00125A54006EA05020A
:10078000AA4276D1DFF8A8C14E68A6EB0C086645F0
:100790002BD00DDC032E34D005DC36B3012E19D05E
:1007A000022E2FD11BE0112E16D0122E2AD119E0C5
:1007B000B8F5881F19D006DCB8F5803F15D0B8F51C
:1007C000801F1FD111E0B8F5001F0ED0B8F5041F2F
:1007D00018D10AE0CB6815E0CB681B1D12E0CB688E
:1007E00008330FE0CB680C330CE08B682BB1012B86
:1007F0004FF0080303D0456104E0042302E00561E3
:1008000000E00023FF2A01D8064601E000F10406BB
:100810004FEA840501D9A5F12005D6F8008007FA32
:1008200005FC28EA0C0803FA05F548EA0508C6F8AD
:1008300000804D68ED0070D53E4DAE6946F0010672
:10084000AE61AD6924F0030605F0010500953A4D4F
:1008500006EB050CDCF80850A607360F07FA06F879
:1008600025EA0805DFF8D480404503D14FF00008A1
:1008700025E052E0DFF8C880404502D14FF0010882
:100880001DE0DFF8C080404502D14FF0020816E0BD
:10089000DFF8B480404502D14FF003080FE0DFF8E5
:1008A000AC80404502D14FF0040808E0DFF8A0809A
:1008B000404502D14FF0050801E04FF0060808FA64
:1008C00006F848EA0508CCF808804D68D9F80060B9
:1008D000ED024D4601D5164300E096432E604D686B
:1008E000DAF80060AD02554601D5164300E09643A4
:1008F0002E604D68DBF80060AD035D4601D5164300
:1009000000E096432E604D68DEF80060ED0375460A
:1009100001D5164300E096432E60641C0A68164613
:10092000E2407FF429AFBDE8F88F000008040140E1
:1009300000001110001002400000014000080140BA
:10094000000C01400010014000140140001801405B
:10095000001C01408068084000D0012070470AB1A7
:10096000016170470904FBE7014880687047000097
:1009700008000020024881680278114481607047B5
:1009800008000020074810B5016841F0100101601F
:10099000032000F075F80F2000F006F800F024F8AE
:1009A000002010BD0020024070B50D4D04464FF4EC
:1009B0007A712878B1FBF0F00A490968B1FBF0F0D0
:1009C00000F0E2FF48B9102C07D200222146501E49
:1009D00000F036F800206C6070BD012070BD000092
:1009E00008000020140000200C4808B5816941F07F
:1009F00001018161816901F001010091C16941F04A
:100A00008051C161C06900F0805000900448416885
:100A100021F0E06141F00071416008BD001002402A
:100A200000000140002809DB00F01F020121914075
:100A30004009800000F1E020C0F80011704700007C
:100A4000F0B40E4B1B680C46C3F30223C3F1070539
:100A5000042D00D90425191D072901D2002300E027
:100A6000DB1E012606FA05F1491E214099409E40F1
:100A7000761E16403143F0BC03F0CEBA0CED00E018
:100A8000064900F0070208684FF6FF03184040EAE5
:100A90000220034A10430860704700000CED00E09C
:100AA0000000FA0510B50C0607D501F0070101EBAF
:100AB000810100EBC100103005E001EB810100EB8A
:100AC000C10000F5A87099B232B101220273018110
:100AD000190C4181002010BD00220273C180F9E78A
:100AE000704701EB810200EBC202D0F8D402526AD7
:100AF00002F0C4B901EB810200EBC202D0F8D402CB
:100B0000D2F8642102F01DBA70B504460B0601F05C
:100B1000070000EB800104EBC1014FF001024FF030
:100B2000000502D54A74103103E081F8515101F5F6
:100B3000A871087094F89002012808D084F89022D7
:100B4000206802F0C1FE84F89052002070BD02209F
:100B500070BD70B5044601F00F002279904201D9B2
:100B6000012070BD0B0601F0070000EB800104EBD3
:100B7000C1014FF001024FF0000502D54A74103157
:100B800003E081F8515101F5A8718D70087094F857
:100B90009002012808D084F89022206802F031FFEA
:100BA00084F89052002070BD022070BD2DE9F05FE6
:100BB00004685FEA424C0B788D69B4F850C04FF07E
:100BC00000064BF68F7948F2800A48F68F7B48F290
:100BD000C00E4FF480672AD54FF0020808EBC30817
:100BE000C44407EB4C07E45BC4F30904A54203D3F8
:100BF0002D1B8D6101D00BE08E61066836F8235005
:100C000005EA090585F4005545EA0A0526F823504A
:100C1000520609D50D78036833F8252002EA0B0245
:100C200042EA0E0223F8252084B30A8929E04FF016
:100C3000060808EBC308C44407EB4C07E45BC4F3A5
:100C40000904A54203D32D1B8D6101D00BE08E61F9
:100C5000066836F8235005EA090585F4005545EA8B
:100C60000A0526F82350520609D40B78056835F892
:100C7000232002EA0B0242EA0E0225F823202CB1BF
:100C80004A8949690068234603F094F92046BDE883
:100C9000F09F2DE9F05F054600680C465FEA426C64
:100CA00016468B692278B0F850C048F68F774CF220
:100CB00080094FF4004B4FF6FF7E4FF4806A4FF0EF
:100CC000000172D54FF0020808EBC208E0440AEBBD
:100CD000480C30F80C00C0F30900834211D91B1AEC
:100CE000A3610FD0730407D52E6836F822303B403D
:100CF00043EA090326F8223094F82420012A47D039
:100D000052E1A161607810B1012813D01AE028687F
:100D1000B0F85030184400EB0210B0F80424C2F3CD
:100D20000902A0F80424B0F8042442F40042A0F818
:100D3000042407E02868B0F85030184400EB021093
:100D4000A0F804146278286812B1012A11D018E0C2
:100D5000B0F850100844217800EB0110B0F80C14E2
:100D6000C1F30901A0F80C14B0F80C1441F40041CF
:100D700005E0B0F850201044227800EB0210A0F8F3
:100D80000C1421782846FFF7ACFE700472D40BE1F6
:100D9000626902446261E2690244E2612369226A93
:100DA0009A4203D31846111A04E03EE084F8241056
:100DB0000AB110462162617811B1012929D031E0D0
:100DC0002968B1F850201144227801EB0211B1F8E2
:100DD0000424C2F30902A1F8042401F204413E28CC
:100DE00007D94209C30600D1521E0B884BEA822262
:100DF00007E048B14208C30700D0521C0B880EEA36
:100E0000822213430B800DE00A8842F400420A80DC
:100E100008E02968B1F850201144227801EB021152
:100E2000A1F8040483B22289BAE04FF0060808EB67
:100E3000C208E0440AEB480C30F80C00C0F309008B
:100E4000834211D31B1AA3610FD0730407D42E68F9
:100E500036F822303B4043EA090326F8223094F862
:100E60002420012A51D09FE0A161607818B10128A7
:100E700014D01BE03FE02868B0F85030184400EB75
:100E80000210B0F80424C2F30902A0F80424B0F858
:100E9000042442F40042A0F8042407E02868B0F8D3
:100EA0005030184400EB0210A0F80414627828684F
:100EB00012B1012A11D018E0B0F85010084421787E
:100EC00000EB0110B0F80C14C1F30901A0F80C14E8
:100ED000B0F80C1441F4004105E0B0F85020104483
:100EE000227800EB0210A0F80C1421782846FFF7B6
:100EF000F8FD700458D42278296831F8220038406F
:100F000040EA090021F822004EE062690244626171
:100F1000E2690244E2612369226A9A4203D31846D5
:100F2000111A216204E00AB11046216284F82410EB
:100F30006278296812B1012A28D02FE0B1F8502038
:100F40001144227801EB0211B1F80C24C2F309021A
:100F5000A1F80C2401F20C413E2807D94209C3062E
:100F600000D1521E0B884BEA822207E048B14208AA
:100F7000C30700D0521C0B880EEA822213430B8059
:100F80000CE00A8842F400420A8007E0B1F85020E1
:100F90001144227801EB0211A1F80C04628983B29A
:100FA0006169286803F024F82278296831F8220062
:100FB00048F6BF73184080F0300048F280031843B1
:100FC00021F822000020BDE8F09F01F0070101EBAD
:100FD000810100EBC100D0F86C0170472DE9F041B0
:100FE00004460F0601F0070000EB800104EBC1018D
:100FF0004FF001064FF0000502D54E74103103E0AA
:1010000081F8515101F5A871022B08700A61CB706B
:1010100000D10D7194F89002012809D084F89062F3
:10102000206802F001FB284684F89052BDE8F08168
:101030000220FBE710B501F0070404EB840100EB8C
:10104000C101C1E959230022C1F86C2181F8512165
:1010500081F85041006801F5A87102F027FD0020D9
:1010600010BD70B504460D4601F007002179884295
:1010700001D9012070BD29064FF000064FF0010292
:1010800006D500EB800104EBC1014A74103107E082
:1010900005EB850104EBC10181F8516101F5A871EF
:1010A0008A70087094F89002012807D084F8902282
:1010B000206802F0E2FC680702D006E0022070BD62
:1010C00004F52671206802F09AFC84F890620020F2
:1010D00070BD10B501F0070404EB840100EBC10101
:1010E000C1E90923012281F834200B630023CB627C
:1010F0004A7401F8104F006802F0D8FC002010BDBF
:101100001FB50446006802F051FF010403D52046D4
:1011100000F08AFF1FBD41050DD5206830F8441F3F
:1011200021F480610180204600F010F90021204662
:1011300000F021F91FBD410405D5206830F8441F97
:1011400021F4804174E0810405D5206830F8441F03
:1011500021F400516CE0C10414D5206830F8401F20
:1011600021F004010180206830F8401F21F00801BF
:101170000180204600F0F7F8206830F8441F21F481
:10118000805155E0010540D5D4F800200020694683
:1011900032F8203021F81030401CC0B20828F7D3B4
:1011A00032F8400F40F001001080206830F8402FE6
:1011B00022F0010202802068B0F844205205FBD5DD
:1011C00030F8442F22F4806202800020236831F836
:1011D000102023F82020401CC0B20828F6D3206835
:1011E00030F8401F41F008010180206830F8441FAA
:1011F00021F400610180206830F8401F41F00401B3
:101200000180204600F0EAF81FBD810509D520685D
:1012100030F8441F21F400710180204600F0A7F847
:101220001FBDC005FCD5206830F8441F21F4807133
:1012300001801FBD2DE9F041040004D094F8910213
:10124000002518B107E00120BDE8F08184F8905234
:10125000204600F04DF8032084F891026571206863
:1012600002F0C6FB94E80F0002F02CFB022698BBAC
:101270000021206802F0B4FE70BB002001270BE0C3
:1012800000EB800104EBC1014F740874CD740D6252
:101290004D62401CC0B28D6221798142F0D800209D
:1012A00012E000BF00EB800104EBC10181F8515155
:1012B00081F8500181F85351C1F86051C1F864516F
:1012C000401CC0B2C1F8685121798142EAD894E843
:1012D0000F0002F084FB10B184F89162B3E76573EC
:1012E00084F89172206802F078FB0020ACE70000DF
:1012F00010B5144C86B0A06940F00400A061A0694C
:10130000694600F0040004904FF4C05000900020A3
:10131000019001200290032003900B48FFF71EFA72
:10132000E06940F40000E061E069002200F40000A0
:10133000049007211420FFF783FB1420FFF772FBB2
:1013400006B010BD001002400008014010B5044670
:10135000D0F8D402012101F0D1FED4F8D402BDE8C6
:10136000104001F08DBED0F8D40201F0B1BED0F82B
:10137000D40201F0B7BE10B5044690F890020128DF
:101380000AD0012084F890026173206802F02AFEDE
:10139000002084F8900210BD022010BDD0F8D422A5
:1013A00000F52671104601F0B3BE10B5044690F862
:1013B0009002012810D0012084F89002206802F0E9
:1013C000E6FD01212046FFF78BFB206802F003FBBE
:1013D000002084F8900210BD022010BDD0F8D40285
:1013E00001F0D1BE2DE9F84305460078354CC00721
:1013F00054D0E0690026C00008D4E06940F0805075
:10140000E061E069012600F0805000902E480168FC
:10141000C90512D40168804641F480710160FFF76C
:10142000A3FA074605E000BFFFF79EFAC01B642839
:1014300023D8D8F80000C005F6D5206A10F4407013
:1014400021D0A98801F4407181421CD0206A1F4933
:10145000012220F440700A6000220A602062C00766
:1014600011D0FFF781FA074641F2883808E000BF43
:10147000FFF77AFAC11B414502D90320BDE8F88382
:10148000206A8007F4D5206A696820F44070084318
:1014900020621EB1E06920F08050E061287880076A
:1014A00005D56068A96820F440400843606028784A
:1014B000C00605D56068696920F480000843606053
:1014C0000020DBE700100240007000404004424270
:1014D0002DE9F0470F46050061D0434E306800F01B
:1014E0000700B84209D2306820F007003843306066
:1014F000306800F00700B84251D128683B4C8107A2
:1015000012D5400703D5606840F4E0606060287839
:10151000000703D5606840F4605060606068A968A7
:1015200020F0F000084360602878C00728D0686881
:10153000012810D02168022810D0890700292EDA4E
:10154000616821F0030101436160FFF70DFA8046F5
:1015500041F288390DE021688903EFE78901EDE761
:10156000FFF702FAA0EB0801494502D90320BDE8C4
:10157000F0876068696800F00C00B0EB810FEFD174
:10158000306800F00700B8420BD9306820F007003F
:1015900038433060306800F00700B84201D00120C5
:1015A000E5E72878400705D56068E96820F4E06041
:1015B000084360602878000706D56068296920F430
:1015C000605040EAC100606000F028F86168084A95
:1015D000C1F30311515CC840064908600648006821
:1015E000FFF7E2F90020C2E70020024000100240AD
:1015F000DE400008140000200C00002004480549CB
:1016000000684968044AC1F3C221515CC840704770
:101610001400002000100240EE4000080E4A5168FD
:101620000E4801F00C03042B11D0082B0FD10C48ED
:10163000C1F38343C903C05C0AD55168084AC1F3AA
:101640004041921E515C054A5043B0FBF1F0704797
:1016500004494843704700000010024000127A001D
:10166000CE40000800093D002DE9F84F040070D07D
:101670002078C04DC00749D06868C0F381000128B8
:1016800007D06868C0F38100022809D16868C003E8
:1016900006D52868800339D560680028E7D035E092
:1016A0006068B0F5803F0BD010B1B0F5A02F11D01D
:1016B000286820F480302860286820F4802002E028
:1016C000286840F480302860606890B1FFF74CF9DA
:1016D00006460AE0286840F480202860F0E700BF52
:1016E000FFF742F9801B642873D828688003F7D578
:1016F0000CE0FFF739F9064605E000BFFFF734F9C3
:10170000801B6428F0D828688003F7D420789A4E8C
:1017100080074FF001094FF0000839D5686810F0D4
:101720000C0F07D06868C0F38100022809D16868EF
:10173000C00306D42868800714D52069012808D181
:1017400010E02069B0B1C6F80090FFF70DF9074628
:1017500005E00AE1FFF708F9C01B0228C4D8286891
:101760008007F7D52868616920F0F80040EAC100D9
:1017700028600DE0C6F80080FFF7F6F8074604E0A1
:10178000FFF7F2F8C01B022823D828688007F7D497
:10179000207800072CD57948A169D9B1C0F800900C
:1017A000FFF7E2F8074604E0FFF7DEF8C01B022867
:1017B0000FD8686A8007F7D571484FF4FA5100686E
:1017C000B0FBF1F0009000BF0098411E0091FAD2EA
:1017D0000EE080E0C0F80080FFF7C6F8074604E09E
:1017E000FFF7C2F8C01B022875D8686A8007F7D4D3
:1017F0002078400760D5E8690027C00008D4E86970
:1018000040F08050E861E869012700F080500090C6
:101810005C480168C90513D40168834641F48071AE
:101820000160FFF7A1F8824606E000BFFFF79CF8D1
:10183000A0EB0A0064284ED8DBF80000C005F5D5FF
:10184000E06801280AD008B1052813D0286A20F0E2
:1018500001002862286A20F0040002E0286A40F0B3
:1018600001002862E06841F2883B98B1FFF77CF8FC
:1018700082460BE0286A40F004002862EEE700BFD1
:10188000FFF772F8A0EB0A0159455AD8286A800779
:10189000F6D50CE0FFF768F8824605E0FFF764F83C
:1018A000A0EB0A0159454CD8286A8007F6D41FB12D
:1018B000E86920F08050E861E06988B36968C1F3A5
:1018C0008101022944D00228C6F8608004D0FFF7C5
:1018D0004BF8044638E034E0FFF746F8074604E0EA
:1018E000FFF742F8C01B02282BD828688001F7D4E4
:1018F000206AB0F5803F05D16868A16820F4003007
:1019000008436860D4E908010843696821F4741148
:1019100008436860C6F86090FFF726F8044606E0C2
:1019200025E000BFFFF720F8001B022809D828682F
:101930008001F7D51BE000BFFFF716F8001B022857
:1019400002D90320BDE8F88F28688001F4D40EE0A6
:101950000128F7D06868226A00F48031914204D1EE
:10196000616A00F47010884201D00120EAE700208B
:10197000E8E70000001002400000424280044242BA
:10198000140000200070004010B5401EB0F1807FB0
:1019900001D3012010BD4FF0E02460610F216017DA
:1019A00002F03AFB0020A06107202061002010BD5A
:1019B0007047704770B590F83C20012A2CD0012464
:1019C00080F83C40022280F83D2003685A689D68F8
:1019D00022F070060A6832435A60104B02689A423D
:1019E0000ED00F4B9A420BD0B2F1804F08D00D4B66
:1019F0009A4205D00C4B9A4202D00C4B9A4204D129
:101A0000496825F080031943916080F83D4000212A
:101A100080F83C10084670BD022070BD002C0140CB
:101A2000003401400004004000080040000C004069
:101A300010B5040003D094F83D0010B107E0012078
:101A400010BD002084F83C00204600F01FF8022062
:101A500084F83D00211D206800F0C6FE012084F8B6
:101A6000460084F83E0084F83F0084F8400084F883
:101A7000410084F8420084F8430084F8440084F86C
:101A8000450084F83D00002010BD000008B5016845
:101A90001448B1F1804F14D0134A914220D1C1694A
:101AA00041F00201C161C069012200F00200009012
:101AB00000211D20FEF7C4FF1D20BDE80840FEF7F1
:101AC000B1BFC16941F00101C161C069002200F0EC
:101AD0000100009011461C20FEF7B2FF1C20ECE72D
:101AE00008BD0000001002400004004090F83D10C6
:101AF000012901D001207047022180F83D100168C2
:101B0000CA6842F00102CA6000680E4988420ED0DD
:101B10000D4988420BD0B0F1804F08D00B49884264
:101B200005D00B49884202D00A49884204D1816815
:101B300001F00701062903D0016841F001010160AD
:101B400000207047002C0140003401400004004098
:101B500000080040000C00400168CA6822F0010241
:101B6000CA6001680A6A41F211131A4207D10A6A6F
:101B70009B101A4203D10A6822F001020A60012177
:101B800080F83D100020704770B5044690F83C0086
:101B90000025012817D0012684F83C60022084F833
:101BA0003D002068826822F0770222F47F42826042
:101BB0000868502838D00DDC20284FD005DC90B3C1
:101BC000102811D14AE0022070BD302846D04028AC
:101BD0000AD13BE060282FD070280DD0B0F5805F8F
:101BE00003D0B0F5005F12D0012584F83D600020DD
:101BF00084F83C00284670BDCB68D1E901212068FB
:101C000000F040FE2068816841F0770109E0CB6870
:101C1000D1E90121206800F035FE2068816841F497
:101C200080418160E1E719E0CA684968206800F0F6
:101C30003BFE5021206806E0CA684968206800F031
:101C400044FE6021206800F027FECEE7CA6849689C
:101C5000206800F029FE40212068F4E72268014650
:101C60001046F0E770472DE9F04104460068C66869
:101C700005694FF00007A90713D5B10711D5F91E63
:101C8000016101202077206880698007204602D00A
:101C9000FFF7E8FF04E000F07EF8204600F07CF853
:101CA0002777680716D5700714D521686FF00400F0
:101CB0000861022020772068806910F4407F204668
:101CC00002D0FFF7CFFF04E000F065F8204600F0F7
:101CD00063F82777280715D5300713D521686FF0EB
:101CE00008000861042020772068C069800720462A
:101CF00002D0FFF7B7FF04E000F04DF8204600F0F7
:101D00004BF82777E80616D5F00614D521686FF052
:101D100010000861082020772068C06910F4407F17
:101D2000204602D0FFF79EFF04E000F034F8204682
:101D300000F032F82777E80708D0F00706D02168CE
:101D40006FF001000861204600F027F8280608D54A
:101D5000300606D521686FF0800008612046FFF745
:101D600027FE680608D5700606D521686FF040008A
:101D70000861204600F014F8A8060AD5B00608D578
:101D800021686FF0200008612046BDE8F041FFF7B0
:101D900010BEBDE8F08170477047006800F05EBC7F
:101DA0007047FEE7F0B500230A24302537261F468A
:101DB00011E000BFB4EB107F02D905EB107C01E00D
:101DC00006EB107C01F813C001EB430C00015B1C17
:101DD0008CF80170DBB29342ECD3F0BD2DE9F041F9
:101DE00086B00026354800960196029603968169D2
:101DF00041F040018161816901F0400104918169F4
:101E000041F010018161816901F010010491816943
:101E100041F004018161816901F00401049181694B
:101E200041F008018161816901F008010491816933
:101E300041F0200181618069DFF8848000F020009A
:101E4000049000220F214046FEF789FD4FF6FF75F2
:101E50000324CDE9005469461A48FEF77FFCCDE91A
:101E6000005469461848FEF779FC0F200127CDE998
:101E700000070220CDE9026069464046FEF76EFC8D
:101E800010208DE8C10069464046FEF767FC49F620
:101E9000E070CDE9000469464046FEF75FFCCDE9FD
:101EA000005469460948FEF759FCCDE900546946DB
:101EB0000748FEF753FC06B0BDE8F0810010024071
:101EC000000801400018014000100140000C0140D2
:101ED000001401404FF08041014800F00BB80000B1
:101EE000E00100200149024800F004B8000400406D
:101EF0002802002030B587B00025044600950195E2
:101F000002950395049547200595C4E9001040F219
:101F1000E730C4E9025025612046A561FFF788FD3E
:101F200008B1FEF719FC4FF4805000906946204636
:101F3000FFF72AFE08B1FEF70FFC049504A920461E
:101F40000595FFF737FD002801D0FEF705FC07B027
:101F500030BD000030B585B01E4800240294816970
:101F600041F480418161816901F48041049181697A
:101F700041F0040181618069174D00F00400049074
:101F80004FF40070009002200190032003906946F6
:101F90002846FEF7E3FB2815CDE9000469462846EC
:101FA0000294FEF7DBFBFFF729FB4FF4E131B0FBB6
:101FB000F1F00A490860091D42F22C000860002275
:101FC00001212520FEF73CFD2520FEF72BFD05B065
:101FD00030BD0000001002400008014008380140F8
:101FE00010B500220B490C4800F025FF002810D145
:101FF0000A49094801F0EBF800280AD108490648C7
:1020000000F0A6FD002804D1BDE81040024801F010
:1020100033B910BD300000207002002058010020AC
:1020200020000020FEE7FEE72DE9F84F044640F6C9
:102030008F7B48F60F794FF480684FF0000ABDE1BE
:10204000B0F8441011F00F0539D030F82560310494
:102050007ED530F8251001EA0B0141F0800120F80F
:10206000251005EB850004EBC00797F85C0107F528
:10207000A87700286DD0F87802286BD039782268CC
:1020800032F8210048F68F73184048F2C003184315
:1020900022F821003978206830F82120B0F850303B
:1020A00052047DD5022202EBC1015A1808EB42010D
:1020B000415A8905890D009173D03A89DDE0C9063E
:1020C0002BD4018801EA090141F400410180206814
:1020D00004F11005B0F85030217C022202EBC1015E
:1020E0005A1808EB4201405AC0F30900E062616AE5
:1020F0000844606200212046FEF7F3FC607B002864
:102100009DD0A86900289AD1607B216840F08000AA
:10211000A1F84C0084F80DA050E1018804F5A875E1
:102120000A0521D5B0F850202B78062101EBC30118
:102130000A4408EB4201405A04F52671C0F3090332
:10214000EB61EA88206801F035FF2068018802E031
:10215000AEE06EE07EE001EA0B0141F0800101801B
:102160002046FFF71BF929E10904D5D5018801EACA
:102170000B0141F0800101802068B0F850202B78DD
:10218000062101EBC3010A4408EB4201405A8305D2
:102190009B0DEB6110D0696971B1EA88206801E09C
:1021A0005FE05DE001F006FFE96968690844686185
:1021B00000212046FEF79EFC216808880205ABD46A
:1021C000C0F301300328A7D0B1F850000844B0F89C
:1021D0000C14C1F30901A0F80C142A6900F20C4098
:1021E0003E2A09D95109D20600D1491E02884FF46E
:1021F000004343EA812109E0B2B15108D20700D07F
:10220000491C02884FF6FF7303EA81210A430280CA
:10221000216808884BF68F72104080F4405048F2D5
:10222000800210430880C9E0018841F40041018028
:10223000EEE72068B0F850203B78062101EBC3019F
:102240000A4408EB4201415A8905890D009118D0D2
:10225000FA8812E0324639462046FEF7A7FC009085
:102260000FE0062202EBC1015A1808EB4201415A65
:102270008905890D009104D07A897969009B01F064
:1022800099FEF86900990844F86179690098084452
:102290007861B86918B139690098814204D93978F0
:1022A0002046FEF727FC03E03946206801F0FEFBDC
:1022B00030062ED505EB850004EBC001206830F810
:1022C000252002EA090242F4004220F82520C87CB9
:1022D000103101281ED0F0056CD42068B0F85030C1
:1022E0000D78022202EBC5021A4408EB4202805A22
:1022F0008A69C0F30900824255D9121A8A6154D002
:102300004A6902444A61CA691044C861206801F000
:10231000CDFB53E0C1F818A0087B524608B3700605
:1023200020D5487810B1012812D03AE02068B0F8E2
:10233000502010440A7800EB0210B0F80424C2F3D5
:102340000902A0F80424B0F8042442F4004206E094
:102350002068B0F8503018440B7800EB0310A0F858
:1023600004241EE04B78206813B1012B11D018E033
:10237000B0F8502010440A7800EB0210B0F80C249A
:10238000C2F30902A0F80C24B0F80C2442F4004275
:1023900005E0B0F8503018440B7800EB0310A0F8BB
:1023A0000C24097802E0C1F818A0E9B22046FEF733
:1023B00098FB03E032462046FEF76BFC2068B0F83D
:1023C000441009043FF53CAE0020BDE8F88F70478B
:1023D000F8B55E484178102901D1817829B141785A
:1023E0005B4D11292C7807D009E05AA00322006820
:1023F00000906946802060E081780F2903D0417801
:10240000122914D016E0681C00F0F2F80746681D87
:1024100000F0EEF806464E48093000F0E9F80346B1
:10242000B5F80D0000903246394620467EE08178AE
:10243000012903D04178132915D017E02046FF2C3D
:1024400003D002280BD2012105E001210020FEF774
:10245000C7F801210846BDE8F840FEF7C1B80023DF
:102460001A4602216CE08178012904D041780024C9
:1024700015290ED00FE02046FF2C05D00228EED201
:10248000BDE8F84000F0BEB8002000F0BBF8012025
:10249000F6E7817819B14178142913D015E08DF849
:1024A000004010212C48FEF755FA48B15FF00000BB
:1024B0008DF8010002226946822000F029FAF8BD59
:1024C0000120F5E78178122903D04178012919D03C
:1024D0001BE01F48048A0C3000F08AF807461C48AD
:1024E000083000F085F80646281D00F081F8054602
:1024F000174800F07DF83B46324629460094FDF728
:1025000081FFF8BD8178082903D04178022910D0D5
:1025100012E0281D00F06CF805460D4800F068F840
:1025200001464FF47A732A4600200094FDF7E2FF3B
:10253000F8BD8078002888D0002302211A46FF20A9
:1025400001B0BDE8F04000F06DB8000000000020D0
:1025500090010020010102000008014070B5224CEA
:102560000546607900280BD1217800260120052935
:1025700033D2DFE801F003060C142100AA2D19D094
:1025800070BD552D01D1022014E0002012E06570CD
:1025900029460020FEF7D0F8207103200AE0A5703C
:1025A00029462079FEF7C8F82071E6709DB1182DF4
:1025B000EBD80420207070BDE0780C490144401C29
:1025C000E0700D7029462079FEF7B6F82071E078AA
:1025D000A1788842EFD30520ECE721798D4200D124
:1025E0006071267070BD0000000000209001002086
:1025F00082780188C07862F31F4141EA0060704729
:10260000704700000649C0EBC00201EB82014B6835
:102610008A8AC97D09B1202100E0012100F002B8B9
:10262000A80100201CB58DF800008DF801108DF870
:102630000220100A8DF803008DF80430180A8DF876
:102640000500180C8DF80600180E8DF807000822FA
:102650006946812000F05CF91CBD000070B5B0F146
:10266000804F23D0354988421FD101253449C5EB1D
:10267000C50001EB8004E07D002816D0A17D314823
:102680000126B1B34FF0000295B10421FEF767F9BE
:102690000020A0756168226891420DD3E0754DB1AC
:1026A000294800BFFFF758FA267670BD0025DDE700
:1026B0000121EBE72548F5E720686168421AE068E8
:1026C000E168484321694900B0FBF1F02169E36802
:1026D000B1FBF3F101B9012182420DD8E068642811
:1026E0000AD9E26801F16400824203D9E068401A25
:1026F0000FE015E064200CE0E068A268904209D287
:10270000E068A2680844904202D2E068084400E011
:10271000A068E060E1682846BDE87040FDF7D6BEDD
:102720004FF001023DB10421FEF719F9A67560686A
:10273000401C606070BD0121F6E70000000400400D
:10274000A80100200008014028020020E00100202C
:10275000FEF710B930B595B028216846FDF7BBFDEE
:1027600014210AA8FDF7B7FD18210FA8FDF7B3FD46
:1027700001210804CDE900100024029402250491EF
:10278000CDE907504FF4E01009906846FEF76CFF62
:1027900008B172B6FEE70F20CDE90A054FF480605C
:1027A000CDE90C4002210AA80E94FEF791FE08B173
:1027B00072B6FEE7102014940F900FA8FEF712FED9
:1027C000002801D072B6FEE715B030BD704700009A
:1027D0000148FFF748BA0000E00100200148FFF778
:1027E00042BA000028020020F0B50268204C214DBA
:1027F000214E224F224B4FF0804CA04209D09842EC
:1028000007D0604505D0A84203D0B04201D0B842FD
:1028100004D122F0700E4A6842EA0E02A04209D0AA
:10282000984207D0604505D0A84203D0B04201D0FD
:10283000B84203D122F44075CA682A434D6922F098
:1028400080022A4302608A68C2620A688262A042E9
:1028500001D0984201D109690163012141610169F7
:10286000C90703D0016921F001010161F0BD000039
:10287000002C01400004004000080040000C004013
:102880000034014010B5846842EA032224F47F44F6
:102890000A432243826010BD826822F070020A431C
:1028A00042F007018160704710B5036A046A24F0A2
:1028B00001040462846924F0F00444EA021423F061
:1028C0000A020A438461026210BD10B5036A046AF9
:1028D00024F010040462846923F0A00324F47044FB
:1028E00044EA023243EA01118261016210BD000034
:1028F00005480068800605D50348001D0068C0B281
:10290000FFF72CBE7047000000380140FFF7F0BF12
:10291000F0B589B00E46AA218DF8001055218DF82A
:10292000011014468DF80200002201468DF8034084
:102930001046FDF701FF2146FDF7FEFE00256F461C
:1029400007E07A19715D1171715DFDF7F5FE6D1C7F
:10295000EDB2A542F5D339196D460871641D2146C3
:102960002846FDF7C9FE074900200B1D06E02A5C3A
:102970000E683606FCD51A60401C80B2A042F6D321
:1029800009B0F0BD003801402DE9F041D0F8C03267
:10299000D0F8B822CAB101EB810500EB850400260E
:1029A000E7693FB103EBC5031B6AB7FBF3F503FB14
:1029B000157323B1C2F814620020BDE8F081002332
:1029C0001A46E66100F0E8FBF6E70220F5E770B58D
:1029D0000546D0F8B84200F0F5FAC4F80C02D5F874
:1029E000B80248B1D5F8BC12D4F80402CA6804F59C
:1029F00003719047002070BD022070BD70B5044681
:102A00000026812100F033FA002501212046E562ED
:102A100000F02DFA82212046C4F86C5100F027FA0C
:102A20002564D4F8B80248B1D4F8BC0204F52E7479
:102A300040688047206800F0F1FD2560304670BD99
:102A400010B5D0E9AE4159B194F80002FF2807D083
:102A50008B6894F8012221469847FF2084F80002F1
:102A6000002010BD0A21018000487047800000202E
:102A70004321018000487047D0000020432101809D
:102A8000004870478C0000204321018000487047B7
:102A9000140100202DE9F04104460026007C4FF48B
:102AA0000077012590B3402302228121204600F0C7
:102AB000D6FA4023E56202220121204600F0CFFA37
:102AC0000823032282212046C4F86C5100F0C7FA83
:102AD0004FF40770256400F0A3FDC4F8B802F8B104
:102AE0000546D4F8BC02006880470020C5F81402EF
:102AF000C5F81802207CD5F8042298B140230121A2
:102B0000204600F0B6FA3046BDE8F081FFE73B46CC
:102B100002228121204600F0A2FA3B46E562CAE784
:102B20000126F0E73B46EAE710B5D0F8B81269B1E4
:102B3000027C002AD1F8042205D04023012100F0B4
:102B400098FA002010BD4FF40073F7E7022010BD83
:102B500002460220002902D00020C2F8BC127047B1
:102B6000D0F8B802C0F8041200207047D0F8B802BC
:102B7000C0F81022C0F80812002070472DE9FC416F
:102B80000546D0F8B87200208DF80000ADF80400BA
:102B9000064608780C4610F0600121D020293BD170
:102BA000E288AAB10006607807D5D5F8BC128B6818
:102BB00039469847E288394626E087F80002A0792E
:102BC00087F80102E2883946284600F06AF828E0D2
:102BD000D5F8BC12607800228B682146984720E027
:102BE000607820B10A2809D00B2815D110E095F89B
:102BF0009C02032810D1022201A905E095F89C024D
:102C0000032809D101226946284600F064F808E04B
:102C100095F89C02032804D02146284600F036F897
:102C200002263046BDE8FC8110B5D0F8B812A1B13B
:102C3000D1F814220AB1012010BD0122C1F81422DA
:102C4000D1F810220263B1F8102293B2D1F8082211
:102C5000812100F0A1FA002010BD022010BD10B5A6
:102C6000D0F8B42252689047002010BD134610B52A
:102C70000A46002100F0FDF9002010BD134610B5F2
:102C80000A46002100F088FA002010BD10B5044665
:102C9000802100F06AFA2046BDE81040002100F0D3
:102CA00064BA10B50323C0F85C21C0F89432C0F8B0
:102CB000602113460A46002100F0DBF9002010BD18
:102CC00010B505210023C0F894121A46194600F0E9
:102CD000D0F9002010BD10B50223C261C0F89432B3
:102CE000026213460A46002100F056FA002010BD89
:102CF00010B504210023C0F894121A46194600F0BA
:102D00004BFA002010BDF8B504460020ADF80000D5
:102D100048880D46010A082948D2DFE801F0470437
:102D2000091747473C45D4F8B012207C0A6819E0DF
:102D3000207C02260028D4F8B40205D0C16A684677
:102D40008847014646703EE0816AF8E7C0B206282F
:102D50002CD2DFE800F0030A1014181CD4F8B002DB
:102D6000426805E0694690471CE0D4F8B0028268EA
:102D7000E2B1207CF6E7D4F8B002C268F8E7D4F8F4
:102D8000B0020269F4E7D4F8B0024269F0E7D4F87F
:102D9000B0028269ECE7207C40B9D4F8B402416B00
:102DA0006846884701460EE0207C20B1294620462F
:102DB000FFF76CFFF8BDD4F8B402016B6846884792
:102DC000014607204870BDF8000048B1EA8852B1BA
:102DD000824200D90246ADF800202046FFF77BFF73
:102DE000E8880028E6D12046FFF782FFF8BD70B5DD
:102DF000002300281ED00446002502E06D1CEDB221
:102E0000641C2678002EF9D1022404EB45041480BA
:102E10001278CA545B1C0322CA5400245B1C06E0CF
:102E2000CA545B1CDAB28C54521CD3B2401C0278D8
:102E3000002AF5D170BD10B580B1D0F8B43213B10D
:102E40000023C0F8B43209B1C0F8B012012180F8F3
:102E50009C12027000F0BAF8002010BD022010BDD4
:102E600010B5D0F8C002FDF774FE002010BD10B5FB
:102E7000D0F8C002FDF748FE002010BD2DE9F0415A
:102E80001746044651B1D4F8B40242691AB194F815
:102E90009C02032851D00220BDE8F081D4F894327E
:102EA000002504F11400022B03D0042B3AD0C3B345
:102EB0003CE0D0E903639E4207D9F11AC1608AB2AF
:102EC00039462046FFF7DAFE12E08068B0FBF3F1E6
:102ED00003FB110199B9984211D3D4F89812884292
:102EE0000DD2002211462046FFF7C8FEC4F89852C2
:102EF00000231A461946204600F0BBF816E0D4F825
:102F0000B402C16829B194F89C02032801D120467B
:102F100088478021204600F028F92046FFF7D0FEA0
:102F200004E0FFE78021204600F01FF994F8A0029A
:102F3000012804D184F8A05201E0204690470020E7
:102F4000AAE770B51546044649B1D4F8B4028269BF
:102F50001AB194F89C02032830D0022070BDD4F836
:102F6000941204F5AA70032902D005291ED027E087
:102F7000D0E903218A420BD9531AC3600846834221
:102F800000D303469AB229462046FFF76FFE17E0AA
:102F9000D4F8B402016929B194F89C02032801D144
:102FA000204688472046FFF7A3FE09E0002001469F
:102FB000C4F89402204600F0D8F801E0204690477B
:102FC000002070BDD0F8C002FDF7FFBF10B5044669
:102FD0001A481949016008210171022101728171A9
:102FE00000218172C0F8D442C4F8C00204F53074E4
:102FF000FEF720F90022402311462068FDF752FD1C
:103000008023002219462068FDF74CFDC0230022D2
:1030100081212068FDF746FD4FF4887300220121CD
:103020002068FDF73FFD4FF4807300228221206865
:10303000FDF738FD002010BD005C0040E4070020D3
:103040000A0601F07F01D0F8C00201EB810100EB1C
:10305000C10001D5807C704790F85201704710B5CF
:103060001C461346D0F8C0022246FDF7B7FF0020E9
:1030700010BD10B5D0F8C002FDF7DCFF002010BD78
:1030800070B50022044640231146FFF7E8FF4026B2
:103090000125C4F864613346002280212046C4F82B
:1030A0005851FFF7DCFF6662A56184F89C5200204E
:1030B000C4F894026060C4F8A402D4F8B80228B13D
:1030C000D4F8B4020021426820469047002070BD29
:1030D00090F89C12042903D190F89D1280F89C125C
:1030E0000020704710B590F89C12032904D1D0F845
:1030F000B412C96901B18847002010BD01740020D5
:10310000704710B5D0F8C002FEF735F9002010BDA9
:1031100070B5044600F52A70054600F044F8012019
:10312000C4F89402B4F8AE02C4F8980294F8A80265
:1031300010F01F010AD001290DD0022910D000F093
:103140008001204600F011F8002070BD294620467D
:1031500000F097F8F8E72946204600F0C3F9F3E7B6
:103160002946204600F016F9EEE710B5D0F8C00267
:10317000FDF777FF002010BD10B5D0F8C002FEF7B4
:1031800014F9002010BD90F89C1280F89D120421C3
:1031900080F89C120020704710B5D0F8C002FDF7EF
:1031A00098FF002010BD0A7802704A7842708A7831
:1031B000CB7802EB032242800A794B7902EB03229F
:1031C00082808A79C97902EB0121C1807047024669
:1031D000002011B1C2F8B41270470220704710B538
:1031E000D0F8B42202241AB11268904700B9002422
:1031F000204610BD70B50E461E4D897804462970D4
:10320000012931D894F89C0202280BD003280FD052
:1032100031462046FFF73AFD29782046BDE8704048
:10322000FFF71DBDD9B10320616084F89C0209E05D
:1032300071B16068884212D0C1B22046FFF70FFD1D
:10324000297861602046FFF7CAFF02280CD006E00B
:10325000022084F89C0220466160FFF700FD2046B2
:10326000BDE87040FFF744BD31462046BDE87040E0
:10327000FFF70CBD7E00002010B5FFF77DFF00209A
:1032800010BD2DE9F0410A78002612F0600208D046
:10329000202A01D0402A70D1D0F8B42292689047F9
:1032A0006DE04B78002201250A2B66D2DFE803F09F
:1032B000405D6557650805652C29FFF724FD5EE034
:1032C00004468888D8B9C888C8B94888802816D2E2
:1032D00000F07F0794F89C02032810D084F89E72B7
:1032E00039462046FFF70DFF2046FFF701FD1FB1CD
:1032F000022084F89C0242E084F89C523FE0204681
:103300003BE0FFF777FF3AE0CB88012B35D190F80F
:103310009C32012B04D0022B02D0032B2DD104E0D0
:103320008260012200F1080116E00122011D13E074
:1033300090F89C22012A03D0022A01D0032A1CD132
:10334000CA88022A19D1C560D0F8A41209B1032194
:10335000C160022200F10C01FFF7BDFC0FE04988BB
:1033600001290CD1C0F8A45211E090F89C32012B35
:1033700008D0022B06D0032B04D0FFF787FC304681
:10338000BDE8F08149880129F9D1C0F8A422FFF7EE
:10339000AFFCF4E72DE9F0410A4604461078002717
:1033A000097910F060030AD0202B01D0402B50D1B6
:1033B000D4F8B40211468368204698478FE0C0F3E2
:1033C0004110012806D05078D0B301282AD0032814
:1033D0003FD107E0D4F8B402114683682046BDE827
:1033E000F041184794F89C02022802D0032872D1B9
:1033F0000AE071B380296ED02046FFF7B6FE802127
:103400002046FFF7B2FE6AE0508838B931B1802912
:1034100004D0D08810B92046FFF7A7FE2046FFF75A
:1034200067FC5CE094F89C020228E2D0032852D1A9
:10343000508898BB4806F1D02046FFF711FDEDE714
:10344000FFE794F89C020026022803D0032842D10B
:1034500012E040E009B180293DD1080601F07F006B
:1034600000EB800004EB800101D5143101E001F58F
:10347000AA7102220E602AE0080601F00F0000EB9C
:10348000800004EB80000AD5806920B301F07F0042
:1034900000EB800004EB800514350BE01FE0D0F852
:1034A0005801C0B101F07F0000EB800004EB800503
:1034B00005F5AA7541B1802906D02046FFF7C0FD69
:1034C00010B10120286000E02E600222294620462B
:1034D000FFF701FC03E011462046FFF7D7FB384613
:1034E000BDE8F08170B5054608780C4610F0600024
:1034F00003D0202801D0402816D195F89C0201283D
:1035000003D0022801D003280ED1207901280BD83E
:10351000D5F8B402826828469047E188014306D175
:103520002846FFF7E5FB02E02846FFF7AFFB002047
:1035300070BD000010B50A46024903A0FFF757FC12
:10354000004810BDBC0A002056435020436F6E66F1
:103550006967000012200880004870475000002072
:1035600010B50A46024903A0FFF741FC004810BD10
:10357000BC0A002056435020496E74657266616330
:103580006500000004200880004870474C000020BF
:1035900010B50A46024903A0FFF729FC004810BDF8
:1035A000BC0A00204C6F67697374696373205465AB
:1035B000616D000010B50A46024903A0FFF717FC31
:1035C000004810BDBC0A00205374657070657220FD
:1035D000436F6E74726F6C6C65722055534220435A
:1035E0004443000010B51A2008800A480168001DF5
:1035F0000468001D0068081809D008220649FEF773
:10360000D1FB0549042210312046FEF7CBFB0248CE
:10361000801E10BDE8F7FF1F660000207047000005
:1036200000487047B40500202DE9F0470C780026CB
:1036300030F8243048F68F121340CA78002A78D028
:10364000012A7CD0022A02D0032A75D0012648F232
:103650008002134320F824300D7830F8253048F6E6
:103660008F7423402B43134320F825300D7B48F201
:10367000C00948F6BF734CF2800A4BF68F77EDB362
:10368000CD7891F800C0022D30F82C507DD048F64E
:103690008F6805EA0805154320F82C50B0F8505003
:1036A00091F800C0054405EB0C15B1F808C02CF0EA
:1036B000010CA5F800C4B0F8505091F800C00544C2
:1036C00005EB0C15B1F80AC02CF0010CA5F808C4E4
:1036D0004D78002D7ED00D7830F825C05FEA4C4C37
:1036E00007D530F825C00CEA040C4CEA0A0C20F887
:1036F00025C091F800C030F82C5000E022E06D06A3
:1037000006D530F82C50254045EA090520F82C5004
:10371000CC780D78012C30F8254004EA03047CD0E5
:1037200084F02003134320F82530C1E001E006E0D7
:1037300002E043F400738AE743F4C06387E743F48D
:10374000806384E74D784DB3B0F850500F7805444E
:1037500005EB0715CF8827F00107A5F800740F784F
:1037600030F827506D0606D530F82750254045EA39
:10377000090520F82750CC78012C07D00C7830F8B8
:103780002410194081F0200104E064E00C7830F846
:1037900024101940114320F8241090E0B0F8503064
:1037A0000D78034403EB0513CD8825F00105A3F83C
:1037B0000854B0F850300D78034403EB0513B3F808
:1037C0000C54C5F30905A3F80C540D6903F20C431E
:1037D0003E2D00E045E00BD94FEA551CED0601D126
:1037E000ACF1010C1D884FF4004848EA8C2C0BE02A
:1037F00035B34FEA550CED0701D00CF1010C1D88D3
:103800004FF6FF7808EA8C2C45EA0C051D800D78F0
:1038100030F825305B0408D500E046E030F825306C
:10382000234043EA0A0320F82530097861B130F8D3
:1038300021303B4083F40053134320F821303EE015
:103840001D8845F40045E1E70188394081F4405185
:103850001143018033E0254048F2801845EA08050D
:103860001AE791F800C030F82C506D0406D530F8F6
:103870002C50254045EA0A0520F82C5091F800C04C
:1038800030F82C506D0606D530F82C50254045EA0E
:10389000090520F82C500D7830F825403C4084F480
:1038A0004054144320F8254070E7144320F8254085
:1038B0000B7830F823103940114320F8231030469C
:1038C000BDE8F087002070472DE9F04391F80C80A7
:1038D0004F780A7848F6BF7C4BF68F7948F2800320
:1038E00048F2C0054CF2800648F68F74B8F1000F1C
:1038F00028D0002F30F822704FEA474748D0002FD9
:1039000005DA30F822702740374320F822700A7811
:1039100030F822707F0605D530F8227027402F43FB
:1039200020F822700D7830F825202240324320F80C
:1039300025200C7830F8242002EA0C021A4320F8E3
:1039400024201AE07FB130F82260760605D530F8E1
:10395000226026402E4320F822600A7830F8221098
:1039600001EA0C010EE030F822506D0405D530F864
:1039700022502540354320F822500A7830F8221092
:1039800001EA0901194320F822100020BDE8F08364
:10399000002F05DA30F822702740374320F82270D4
:1039A0000A7830F82260760605D530F82260264085
:1039B0002E4320F822600E7830F8262022402A4339
:1039C00020F826200C7830F8242002EA09021A4355
:1039D00020F82420C1E70020704700207047012113
:1039E00020F8401F00210180818001820846704735
:1039F00030F8401F21F43F41018000207047002033
:103A0000704730B50A7BB2BB4A7848F68F7548F2EA
:103A10008004C2B10B7830F82320520607D530F865
:103A200023202A4048F2C0052A4320F82320CA78E0
:103A3000012A20D00A7830F8221048F6BF731940C6
:103A400081F0200114E00A7830F822305B0407D5B9
:103A500030F822302B404CF280052B4320F82230E6
:103A60000A7830F822104BF68F73194081F44051D8
:103A7000214320F82210002030BD10B54A78097883
:103A8000002A48F2800330F8212005D048F6BF74A0
:103A9000224082F0100204E04BF68F74224082F440
:103AA00080521A4320F82120002010BD2DE9F04754
:103AB0000D464B78097B04464FF0000948F68F729B
:103AC00048F2800A4FF400474FF6FF78012B09D0E7
:103AD00000296FD0E87802286DD001286CD0012031
:103AE000BDE8F087AE692869864200D9064691B1E3
:103AF000E97802291ED0286A801B2862287834F8C9
:103B000020104906B4F85010214401EB001073D581
:103B1000A0F80C6416E1B3B2EA882046696900F0A7
:103B200067FAB4F850002978204400EB0110A0F89F
:103B300004640DE1296A814277D9297834F821009B
:103B4000104048F28012104324F82100286A801B9C
:103B50002862287834F820104906697871D511B1A7
:103B600001292AD030E0B4F85010214401EB0010B4
:103B7000B0F80C14C1F30901A0F80C1400F20C40C9
:103B80003E2E07D97109F20600D1491E028847EA84
:103B9000812107E04EB17108F20700D0491C02886C
:103BA00008EA81210A4302800EE0018841F40041C5
:103BB000018009E0F1E020E195E1B4F8502011190D
:103BC00001EB0010A0F80C646A89B3B22046696961
:103BD00000F00EFA6869304468612969286A8842F1
:103BE00002D9801B286202E00646C5F8209068785A
:103BF00018B101282BD032E02FE0B4F8500029781A
:103C0000204400EB0110B0F80414C1F30901A0F83E
:103C1000041400F204403E2E08D97109F20600D1C6
:103C2000491E028847EA812108E0A1E056B17108E7
:103C3000F20700D0491C028808EA81210A43028069
:103C40000DE00EE0018841F40041018007E0B4F886
:103C500050002978204400EB0110A0F804642A8960
:103C600071E011B1012927D02DE0B4F850102144A2
:103C700001EB0010B0F80414C1F30901A0F804141A
:103C800000F204403E2E07D97109F20600D1491E08
:103C9000028847EA812107E04EB17108F20700D09F
:103CA000491C028808EA81210A4302800BE001884E
:103CB00041F40041018006E0B4F85010214401EBCA
:103CC0000010A0F804642A89B3B22046696900F0A4
:103CD0008FF96869304468612969286A884202D985
:103CE000801B286202E00646C5F82090687810B173
:103CF000012836D026E0B4F850002978204400EBA3
:103D00000110B0F80C14C1F30901A0F80C1400F272
:103D10000C403E2E07D97109F20600D1491E0288D7
:103D200047EA812107E04EB17108F20700D0491C33
:103D3000028808EA81210A43028003E0018841F4F5
:103D4000004101806A89B3B22046696900F050F9E8
:103D5000297834F8210048F6BF72104080F0300016
:103D60000FE1B4F850100819297800EB0110CFE6E4
:103D70002A7834F8220048F68F63184040EA0A0097
:103D800024F82200B4F850002A78204400EB0210F6
:103D90008BB2A0F804342A89D6E7A9692869814240
:103DA00002D9091AA96102E00846C5F81890B4F8CA
:103DB00050102A78214401EB0211B1F80C24C2F30F
:103DC0000902A1F80C2401F20C413E287DD94209D8
:103DD000C00600D1521E088847EA82220AE00888FD
:103DE00040F4004007E04208C00700D0521C088899
:103DF00008EA822210430880BBE033BBB4F85000CD
:103E00002978204400EB0110B0F80414C1F3090133
:103E1000A0F80414296900F204403E2907D94B098F
:103E2000C90600D15B1E018847EA832307E041B140
:103E30004B08C90700D05B1C018808EA832319439B
:103E400002E0018841F400410180687810B1012846
:103E500028D030E0B4F850002978204400EB01105D
:103E6000B0F80C14C1F30901A0F80C14296900F290
:103E70000C403E2907D94B09C90600D15B1E0188B9
:103E800047EA832307E041B14B08C90700D05B1C18
:103E9000018808EA8323194302E0018841F40041C4
:103EA000018008E0B4F850100819297800EB0110DF
:103EB000298AA0F80C14E869C0B3297834F82100E5
:103EC000430401D5430605D400E046E044F2400334
:103ED00018424ED134F82100104048F2C00210437D
:103EE00024F8210045E0A9692869814202D9091A0C
:103EF000A96102E00846C5F8189013BBB4F8501049
:103F00002A78214401EB0211B1F80424C2F309021A
:103F1000A1F8042401F204413E2808D94209C3064D
:103F200000D1521E0B8847EA822208E021E078B1D6
:103F30004208C30700D0521C0B8808EA82221343B0
:103F40000B80697800293FF42EAF012909D010E0D9
:103F50000A8842F400420A80F3E700287FF443AF66
:103F60003DE7B4F8502011192A7801EB0211A1F8AD
:103F70000C04297834F821004BF68F72104080F43D
:103F8000405040EA0A0024F821000020A8E5002162
:103F9000A0F844104FF43F41A0F8401000207047B3
:103FA0000148FDF7ADB80000E4070020B0F8440078
:103FB0007047000010B500EB42005C0800F580601F
:103FC00009D000BF30F8042B01F8012B120A01F8C8
:103FD000012B641EF6D1DA0701D00088087010BDED
:103FE0000020704711B98021A0F84C1000207047C4
:103FF00010B55B1C00EB42005B0800F5806009D047
:1040000011F8012B11F8014B42EA042220F8042B8D
:104010005B1EF5D110BDFEE70907090E002804DB81
:1040200000F1E02080F80014704700F00F0000F16C
:10403000E02080F8141D7047FCF7A4FCFEF78AFB13
:10404000FDF7CCFEFDF746FFFDF74CFFFDF782FFC5
:10405000FDF7C6FF1A4C002201212046FCF77FFC29
:10406000002204212046FCF77AFC0122022120468E
:10407000FCF775FC012208212046FCF770FC0023A8
:104080001A461021FF20FEF7CDFA0E4F0E4D0026E6
:10409000787910B1FEF79CF97E710024C4EBC4005E
:1040A00005EB8000017E31B106764368828A0121EA
:1040B0002046FEF7B7FA641CE4B2022CEED3E7E721
:1040C0000008014000000020A801002001020203B6
:1040D0000405060708090A0B0C0D0E0F101000004E
:1040E00000000000000001020304060708090000A8
:1040F0000000010203040000184100080000002035
:10410000900100006C010008DC41000890010020D3
:1041100090100000C8010008813201821023127A39
:104120002AC212120813A1061B089D041A4D041A74
:10413000C5041355351B0885041A91041AB5041AD1
:10414000E5041A35041A6104170403090412011462
:104150000202021640830440571D02010203470376
:104160001A1A03130A0632022A406E1C090243334C
:10417000111DC0320904911A020B130524161001F7
:104180000524011009010424020205240617010771
:10419000058203081C10090469320A1D0705010283
:1041A000432C070581070938442A40072A81071153
:1041B0002B0907440A3B044413952A1408FD2914CB
:1041C000087D2B42081A41101A89101ACF04C11A0F
:0C41D0007D182A711C19041A65040000F7
:0400000508000131BD
:00000001FF
